:020000040800F2
:10000000280C0020A1020008A9020008D52C000835
:10001000AD020008AF020008B102000800000000B5
:10002000000000000000000000000000B302000813
:10003000B502000800000000B70200088946000869
:10004000BB020008BB020008BB020008BB0200089C
:10005000BB020008BB020008BB020008BB0200088C
:10006000BB020008BB020008BB020008BB0200087C
:10007000BB020008BB020008BB020008BB0200086C
:10008000BB020008BB020008A9030008BB0200086D
:10009000BB020008BB020008BB020008BB0200084C
:1000A000794A0008D14A0008BB020008BB020008D8
:1000B000ED4A0008BB020008BB020008BB020008B2
:1000C000BB020008BB020008BB020008BB0200081C
:1000D000BB020008BB020008BB020008BB0200080C
:1000E000BB020008BB020008BB020008BB020008FC
:1000F000BB020008BB020008BB020008BB020008EC
:10010000BB0200080000000000000000BB02000865
:10011000BB020008BB020008BB020008BB020008CB
:10012000BB020008BB020008BB020008BB020008BB
:10013000BB020008BB020008000000000000000035
:10014000BB020008BB020008BB0200080000000060
:10015000000000000000000000000000000000009F
:10016000BB020008BB020008BB020008BB0200087B
:10017000BB020008BB020008BB020008BB0200086B
:10018000BB020008BB0200080000000000000000E5
:10019000BB02000800F002F800F072F814A696E81E
:1001A000000CB244B344DA4501D100F069F8BAE872
:1001B0000F000FA696E83000A5EB040504EB060738
:1001C000AAEB0704A7F101074FEA15154FEA34140B
:1001D000A4F10104AC4201D300F052F813F0010F76
:1001E00018BFFB1A43F0010300F001F8DBE71847E2
:1001F00048600000686000000A444FF0000C10F8EE
:10020000013B13F0070408BF10F8014B1D1108BF94
:1002100010F8015B641E05D010F8016B641E01F834
:10022000016BF9D113F0080F1EBF10F8014BAD1C84
:100230000C1B09D16D1E58BF01F801CBFAD505E0A2
:1002400014F8016B01F8016B6D1EF9D59142D6D3FC
:10025000704700007047000000230024002500269E
:10026000103A28BF78C1FBD8520728BF30C148BF19
:100270000B6070471FB505F067FE1FBD10B510BDC0
:1002800000F058F81146FFF7F5FF05F035FB00F0D8
:1002900076F803B4FFF7F2FF03BC00F07DF800002E
:1002A0000948804709480047FEE7FEE7FEE7FEE70A
:1002B000FEE7FEE7FEE7FEE7FEE7FEE70448054946
:1002C000054A064B70470000554700089501000895
:1002D00028060020280C00202808002028080020DC
:1002E0004FF0000200B5134694469646203922BFCF
:1002F000A0E80C50A0E80C50B1F12001BFF4F7AF1A
:10030000090728BFA0E80C5048BF0CC05DF804EBFB
:10031000890028BF40F8042B08BF704748BF20F869
:10032000022B11F0804F18BF00F8012B7047704767
:1003300070477047754600F02BF8AE4605006946D9
:10034000534620F00700854618B020B5FFF7B6FFEA
:10035000BDE820404FF000064FF000074FF00008C6
:100360004FF0000BAC46ACE8C009ACE8C009ACE803
:10037000C009ACE8C00921F007018D46704710B5EF
:100380000446AFF300802046BDE81040FFF781BF70
:1003900000487047B003002001491820ABBEFEE7BB
:1003A00026000200704700004FF0A040402101608D
:1003B00004F076BC028811FB01F3524311FB313388
:1003C00093429EBF080CC1EA00407047B0B5458813
:1003D0000B140CB211FB31F005FB05F1002B48BFEB
:1003E0006D42884238BF0146A2EB010098BF1D460E
:1003F00002F02CFD0146002C48BF4942A8B2BDE8DE
:10040000B040C1EA004070478189002904BF012043
:10041000704701390A0481811CBF0020704710B564
:10042000B0F91410027E044691FBF2F1826809B221
:10043000104600F051F90120A07310BD80E80E00B5
:100440000021C1817047000010B5044640680021BA
:10045000002205F00DFAD4E90001B4F914204B781C
:100460000A8692FBF3F38A80CB80042104F006F91C
:1004700020680021002204F08DF82068B4F91210E1
:10048000E28A04F087F8E08A218A484344F6D3518F
:10049000C1F26201A0FB0101012000EB9110A081DB
:1004A00010BD00000146006A406A8A6E20F00040DC
:1004B00050434B78020CB1F806C0CA8010FB23F2FF
:1004C0008B68CCEB204003FA80F310B28A808B60FB
:1004D000704700002DE9F047066A90F87CE0F2686A
:1004E000002322F00102F260726AB0F87450A0F8A2
:1004F00074303768B2F1FF3FDCBF6FF00103336146
:10050000F368D40F43F001032C44B4F5006FF3609B
:1005100084BF012380F8853022F0004C826FFB06F7
:1005200000F1280914D4056FACEB020205FB04228C
:1005300090F88440BEF1000F49F8242014D0BEF199
:10054000040F0EF0030813D20025002221E000BFA3
:10055000056F05FB0422ACEB020290F88440BEF16B
:10056000000F49F82420EAD10024002224E000BF33
:100570000EF0FC0A0025002200EB8507D7E90A43AC
:10058000D7E90C6722441A4432440435AA453A4458
:10059000F2D1B8F1000F0ED059F82530B8F1010FA3
:1005A0001A4408D009EB85035C68B8F1020F2244B5
:1005B0001CBF9B681A447446036F456A5C436A43D8
:1005C000002C18BF92FBF4F20A8084898281141BEC
:1005D000448290F88420B0F86C4000EB8202926A6A
:1005E000457862436A4392FBF3F2C469458B6243E8
:1005F00092FBF5F2C2815A1E944538BF624682676B
:1006000090F88420013280F8842090F8842072458C
:1006100024BF002280F8842090F88520012A09D187
:10062000002180F87D10C178024600201170BDE8DD
:10063000F08700BFBDE8F04703F046BF10B590F863
:100640007C10044621B104F128008900FFF748FE20
:10065000012084F87D0010BD0146B0F87400421CF2
:100660000020A1F874207047016A026F0B6843F400
:1006700000630B6000234B624FF0FF33B3FBF2F2D9
:10068000B0F86C30826603EB830252004262B0F82D
:1006900082208B6923F0F0031A438A61B0F882202C
:1006A0008B6923F4704343EA02228A616FF00102EE
:1006B0000A61CA6842F00102CA600A6842F0010297
:1006C0000A6090F87C10002908BF704780B5283078
:1006D0008900FFF705FE80BD01EBD132036F92B2B6
:1006E0005A4348F20103C8F20003A2FB03234278F5
:1006F000C1805143026A8180D80B5062704700006C
:10070000B0B5EFF3108172B640F22C4200EB00114D
:10071000C2F2000202EB4104E58962B694F82010AF
:1007200011B1A08909E000BF40F29831C2F2000186
:1007300051F8200003F0F6FE6083EFF3108172B6EB
:10074000A081E58162B6B0BD10B540F22C4140F207
:10075000903C044600EB0010C2F20001C2F2000C13
:10076000002301EB400241F810305CF82400002126
:10077000D36093605360C2F81230C2F81630C2F8EA
:100780001A3002F0CDFC40F28C30C2F2000050F87A
:100790002400002102F0C4FC40F22060C2F20000FC
:1007A00050F82400BDE8104002F03CBE2DE9F047AF
:1007B00082B0804603F086FD03F050FD40F2200039
:1007C000C2F20000FFF76EFE40F29830C2F2000065
:1007D000006840F22066C2F2000641693068B1F953
:1007E00004A0026801A99047019802F0DDFA514681
:1007F000814602F0F3FA316840F22C4591F88410FA
:1008000007460129C2F200051AD140F29030C2F227
:100810000000B5F90C1000683AB2891A02F082FCA7
:10082000044640F28C30C2F20000B5F90E100068A8
:10083000A1EB274102F076FCC4EA004101E000BFD1
:10084000002140F21A00C2F20000FFF7B3FD51464A
:10085000044602F0E7FA3168064691F88420012A3E
:1008600008D10846314602F001FD0138B0FA80F0A7
:10087000400900E0002001993A0CC5F812402960B7
:10088000C5F804902F816A81C5F81660A5F81CA0F0
:1008900038B140F2C400C2F200000121002202F08F
:1008A0006FFA404602B0BDE8F0870000F0B581B0B5
:1008B00040F2206140F2B010C2F20001C2F200002A
:1008C000086002F0D3FF40F24814C2F20004204650
:1008D00002F01EFC40F22005C2F200052846FFF798
:1008E000C3FE40F29837C2F2000740F2A80639680A
:1008F000C2F2000640F25032C2F2000230462B46ED
:10090000FFF79CFD40F21460C2F20000066040F266
:100910007416C2F20006304602F0FAFB40F2502094
:1009200040F2D822C2F20000C2F2000231462B4649
:1009300003F0B4FF386821462A4603F089FE40F2EE
:100940001C10C2F2000002F0E3FB40F2F000C2F221
:10095000000002F0DDFB40F28830C2F200000068C7
:1009600040F2080140F22C44C2F20001C2F200043D
:10097000C0E9024140F21C6140F2C020C2F2000115
:10098000C2F20000086003F053FD0020FFF7DCFE18
:10099000386803F0F1FD3868012184F8201003F075
:1009A0004FFE3968E060084603F04AFE010C3868E3
:1009B000218203F049FE014640F2C400C2F2000069
:1009C000002201B0BDE8F04002F0D2B9704700004B
:1009D0002DE9F04381B00022009290F83C20012ADA
:1009E00006D14FF0020C604601B0BDE8F08300BFB5
:1009F0000269012380F83C3012B18E69012E29D1A1
:100A00004A68012A1AD10A680D6A0368012D4FEA63
:100A1000022275D040F2005643F48077C5F20006FA
:100A2000B74237D141F20B07BD4237DC082D5DD00C
:100A3000142D5FD01C2D08BF10255EE00368026CEA
:100A40004FF0010C42F0200202649A68120740F154
:100A50008A809CE0C26C1AB1836C164664E000BFC9
:100A60000D6A731E012D5FD0026840F2005742F4F8
:100A70008072C5F20007BA4222D141F20B029542C0
:100A800022DC082D46D0142D48D01C2D08BF10257F
:100A900047E000BF25F480552FE000BF41F20C076E
:100AA000BD4225D041F21807BD4225D00827C0F22B
:100AB0000107BD4204BF0825C0F201051DE000BFCB
:100AC00025F480552DE000BF41F20C02954223D061
:100AD00041F21802954223D00822C0F20102954249
:100AE00004BF0825C0F201051BE000BF342504E067
:100AF000142502E01C2500E02C254F6A2F433A43C1
:100B0000DF6C42F20006C8F2082637401743DF6464
:100B1000826423E0342504E0142502E01C2500E073
:100B20002C254A6A2A431343D1E90027022507EB03
:100B3000470705EB47071F25BD40AB43BA4043EAD3
:100B400002070368721EC0E9127207D1DA6C42F222
:100B50000006C8F2082632403A43DA644FF0000C2F
:100B60009A68120713D4DA684F7F8E7F22F44012FE
:100B7000002F4FEA46575BD03A43DA600A7F012ADA
:100B800005D1026C4FF0010C42F0200202649A6819
:100B900012F00C0F55D09A6802F00302012A03D11B
:100BA0001A68D20740F090810C68CF6840F208398B
:100BB0000126C5F20009012F06FA04F714D1D3F873
:100BC000B0600A2C47EA0607C3F8B07004EB44078C
:100BD00042D39E691B3F07258968BD40AE43B9409B
:100BE0003143996105E000BFD3F8B010B943C3F8B1
:100BF000B010A3EB090203F1304102F50272B1FA21
:100C000081F1B2FA82F249095209102C41EA020E2E
:100C10003AD14A46BEF1000F08BF02F58062126861
:100C2000120200F151814FF00008012587E000BF5A
:100C30000E7F42EA06523A43DA609A6812F00C0FCD
:100C4000A9D10A6ADF68012A27F0007230D14F7FEC
:100C500042EA4762DA6035E05E6938228968FD1C45
:100C6000BA4026EA0202A9401143A3EB09025961E6
:100C700003F1304102F50272B1FA81F1B2FA82F267
:100C80004909520941EA020E122C4BD0112C40F0B6
:100C90001B814A46BEF1000F08BF02F58062126850
:100CA000D20100F111814FF00108002547E000BF9B
:100CB000DA604A7F012A05D1026C4FF0010C42F044
:100CC000200202640A68142602EB4207092A88BF40
:100CD0001E3F88BF182653F806E007248D68BC40E5
:100CE0002EEA040405FA07F727439F51D1E9046768
:100CF000DD68013E032E4FEA82625BD8062404EAD7
:100D00009505AF40DFE806F0024A323E1E6E4FF214
:100D10000005C0F2FF352E4032433A4342F0004214
:100D20001A6638E74A46BEF1000F08BF02F5806236
:100D30001268520200F1C88000254FF0000803F14C
:100D400030424FEA3224052C62D8A9F502760027FA
:100D5000DFE804F054045E5E4A5200BF4FF0A04644
:100D60009A6802F00302012A4DD058E09E6E4FF2BD
:100D70000005C0F2FF352E4032433A4342F00042B4
:100D80009A6608E7DE6E4FF20005C0F2FF352E408E
:100D900032433A4342F00042BFE000BF5E6E4FF282
:100DA0000005C0F2FF352E4032433A4342F0004284
:100DB0005A66F0E61F6E07F0F847974200F08C8005
:100DC0005F6E07F0F847974200F090809F6E07F043
:100DD000F847974200F09480DF6E07F0F84797429B
:100DE0007FF4D9AE96E000BF09F5FC769A6802F070
:100DF0000302012A07D012E009F1F8069A6802F00E
:100E00000302012A0BD11A68D20708D042E000BFC2
:100E1000002601279A6802F00302012AF3D03FB9A5
:100E2000B26802F00302012A02D13268D20731D13E
:100E3000B5B3002948D0D9F800104DF6836241F4CB
:100E40000001C9F8001040F21431C2F20001096833
:100E5000C4F21B32A1FB0212910C01EB810149008B
:100E60000091009981B3009901390091009959B31B
:100E7000009901390091009931B30099013900912D
:100E8000009909B300990139009100990029EAD12C
:100E90001AE000BF00F140094FF0010C20210EE0E4
:100EA000B8F1000F04D079B14FF0807107E000BFB6
:100EB000BEF1000F08BF09F580694FF48001D9F831
:100EC00000201143C9F80010002180F83C10604652
:100ED00001B0BDE8F08300BF1F6E27F000471F661A
:100EE0005F6E07F0F84797427FF470AF5F6E27F0B0
:100EF00000475F669F6E07F0F84797427FF46CAF3C
:100F00009F6E27F000479F66DF6E07F0F847974215
:100F10007FF441AEDA6E22F00042DA663BE6000072
:100F2000F0B5036803F130424FEA3224052C4FF04C
:100F3000010229D840F2001CC5F2000CE646DFE8A9
:100F400004F00D032323070B4FF0A04E06E000BF73
:100F50000CF5806E02E000BF0CF5407E90F83C205E
:100F6000012A04BF0220F0BD9A6852075CBFDEF878
:100F700008205FEA427209D5016C012241F020018C
:100F80000164002180F83C101046F0BD4FF4C162AE
:100F90000C68634508BF4FF40272B3F1A04F08BF5D
:100FA0004FF402725CF8025025F4604514B34E68A9
:100FB00090F8307046EA473635434CF802509D6849
:100FC00005F00305012D02D11B68DB072DD1DEF8EA
:100FD000083003F00303012B03D1DEF80030DB07F8
:100FE00023D15CF8023040F61F778968BB43194370
:100FF000214318E04CF80250996801F003010129DF
:1010000002D11968C90710D1DEF8081001F00301F8
:10101000012903D1DEF80010C90706D15CF80210DF
:1010200040F61F7399434CF802100022A9E7000014
:101030002DE9F04181B00022009290F83C20012A75
:1010400004D10221084601B0BDE8F0810123026805
:1010500080F83C3093685B0700F194814F6807EBA0
:101060004703042F4FEA430302D802F130060DE094
:10107000092F03D802F134061E3B07E00E2F87BF6D
:1010800002F13C065A3B02F138063C3B37681F250B
:10109000D1F800C09D40AF430CFA03F33B433360EB
:1010A000936813F00C0F27D0936803F00303012B10
:1010B00003D11368DB0740F06D81CF6840F208333D
:1010C0000126C5F20003012F06FA0CF744D1D2F82D
:1010D000B060BCF10A0F47EA0607C2F8B0700CEB2B
:1010E0004C075BD396691B3F07258968BD40AE431B
:1010F000B9403143916134E00CEB4C031427BCF14F
:10110000090F88BF1E3B88BF1827D65907258C6852
:101110009D40AE4304FA03F33343D351D1E904367F
:10112000D5685F1E032F4FEA8C6300F2A18006246E
:1011300004EA9505AE40DFE807F0038F778300BF30
:10114000176E4FF20005C0F2FF352F403B4333438B
:1011500043F000431366A7E7D2F8B010B943C2F8D2
:10116000B01002F13041B1FA81F14FEA511ED11AAB
:1011700001F50271B1FA81F14909BCF1100F4EEA93
:10118000010424D11946002C08BF01F580610968CB
:10119000090200F1FF80012133E000BF56693824C5
:1011A0008968FD1C04FA07F726EA0707A9403943B6
:1011B000516102F13041B1FA81F14FEA511ED11A69
:1011C00001F50271B1FA81F149094EEA0104BCF15D
:1011D000120F0BD0BCF1110F40F0DC801946002C2F
:1011E00008BF01F580610968C90106E01946002CB5
:1011F00008BF01F58061096849024FF0000100F164
:10120000CA8002F130454FEA3527052F00F2708081
:10121000A3F502780026DFE807F06E036B6B6367C7
:101220004FF0A04867E000BF976E4FF20005C0F294
:10123000FF352F403B43334343F00043936633E78E
:10124000D76E4FF20005C0F2FF352F403B433343CA
:1012500043F0004341E000BF576E4FF20005C0F27B
:10126000FF352F403B43334343F0004353661BE7B6
:10127000176E07F0F8479F4218D1176E27F0004706
:101280001766576E07F0F8479F4214D0976E07F025
:10129000F8479F4218D1976E27F000479766D76EA0
:1012A00007F0F8479F427FF4FFAE13E0576E07F058
:1012B000F8479F42EAD1576E27F000475766976E6E
:1012C00007F0F8479F42E6D0D76E07F0F8479F42F5
:1012D0007FF4EAAED36E23F00043D366E4E600BFAA
:1012E00003F5FC7807E000BF03F1F80803E000BF56
:1012F0004FF000080126956805F00305012D02D185
:101300001268D2073ED14EB9D8F8082002F0030285
:10131000012A03D1D8F80020D20733D1002941D0C7
:10132000BEF1000F36D019684DF6836241F400011A
:10133000196040F21431C2F200010968C4F21B3294
:10134000A1FB0212910C01EB81014900009100996F
:1013500001B30099013900910099D9B1009901397F
:1013600000910099B1B1009901390091009989B1BA
:10137000009901390091009900294FF00001E8D14E
:1013800009E000BF00F14003012120221F683A4319
:101390001A6000E00021002280F83C20084601B0DD
:1013A000BDE8F081BCF1110F08D1BEF1000F4FF084
:1013B0000001F0D04FF08072E8E700BF002C08BFBA
:1013C00003F5806300214FF48002DFE7B0B582B0FF
:1013D0000021019140B1016CC90609D4016C69B3C7
:1013E0000168002555E100BF0121084602B0B0BDEB
:1013F0000025016C01F01001491940F05C81016881
:101400008A68520700F15781026C01F1304E22F4D4
:1014100081724FEA3E2540F2001C0232052DC5F2D2
:10142000000C02646CD800246246DFE805F06B0310
:10143000696961654FF0A04264E000BF0025456422
:10144000C0E9125580F83C50044600F063F9216869
:1014500020468A68D20000F11C818A6802F00302EB
:10146000012A03D10A68D20740F0E680026CD20656
:10147000B7D4026C41F202139A43023202648A68C2
:101480004DF6836322F040528A608A68C4F21B33AF
:1014900042F080528A6040F21432C2F200021268B6
:1014A0000025A2FB03239A0C02EB82025200019258
:1014B000019A002A00F0ED80019A013A0192019A06
:1014C000002A3FF48EAF019A013A0192019A002A54
:1014D0003FF487AF019A013A0192019A002A3FF442
:1014E00080AF019A013A0192019A002AE4D1D0E03A
:1014F0000CF5806206E000BF0CF5407202E000BF10
:10150000002201248B6803F00303012B02D10B6836
:10151000DB071ED13CB9936803F00303012B02D112
:101520001268D20715D1A1EB0C02BEFA8EF3B2FA03
:1015300082F25B0952091A434FF4C16218BF4FF49B
:1015400002725CF80230456823F440332B434CF8B8
:101550000230426B437E012AD0E902244FEA433530
:1015600042EA040290F8204005F5805508BF5D036B
:10157000012C42EA05021FD0836A012B36D18B6809
:1015800013F00C0F00F0B880CB684CF20705CFF6D3
:10159000F0752B401A43CA6002690B6B012A23F0D5
:1015A0000F0202D1C369013B1A430A6300210122E1
:1015B0006FF00303416482E073B1036C43F02003D6
:1015C00023F002030364436C43F001034364836A22
:1015D000012BD4D00AE000BF436A0025CFF6FF7587
:1015E00005EB43431A43836A012BC8D040F20054F1
:1015F00041F48075C5F20004A5420FD1B3F5845FB4
:1016000010DAB3F5807F61D0B3F5E07F66D0B3F533
:10161000307F08BF4FF4E07366E000BF23F48053CF
:1016200062E000BF56D0B3F5865F5BD0B3F58A5F4A
:1016300008BF4FF4707357E08A6802F00D02012A68
:101640001DD1886840F0020088600320086000F027
:10165000B3F9216805468A682046D20704D105E718
:101660008A68D2073FF402AF00F0A6F901464A1B90
:1016700021682046032AF3D38A68D207F0D0026C8F
:10168000012542F010020264426C42F00102426401
:10169000026C8A68D20003D5896889007FF5A9AEFB
:1016A000016C41F0100121F002010164416C41F034
:1016B00001014164016C012110226FF01203056CDD
:1016C0002B401A430264084602B0B0BD4FF4307399
:1016D0000AE000BF4FF4A07306E000BF4FF4807330
:1016E00002E000BF4FF4C073C56A2B431A438B68F6
:1016F00013F00C0F7FF448AFCB6844F20205AB4304
:10170000CB60037E90F830509B0343EA45031A43B5
:101710003AE7000010B586B0006840F20011C5F24B
:10172000000188424FF000010591CDE90311CDE998
:1017300001113BD0B0F1A04F62D140F25041C2F252
:1017400000010A6841F21400C4F20200531C0B604D
:1017500042B9016841F080510160016801F0805197
:10176000009100990168032441F40021016001689F
:1017700001F4002100910099016841F400310160F9
:10178000006801A900F40030009000980620019044
:101790000020039040F60000C4F60000029400F020
:1017A00031F8CDE901444FF0904024E040F250413F
:1017B000C2F200010A6841F21400C4F20200531C94
:1017C0000B6042B9016841F080510160016801F08D
:1017D000805100910099016841F400210160006886
:1017E00000F40020009000980320CDE9010040F6AD
:1017F0000000C4F600000021039101A900F002F8E6
:1018000006B010BD2DE9F04F83B00E68002E00F039
:10181000CF8000F1200241F6000C009200F1384721
:10182000C4F6000C07224FEAB725604508BF062220
:10183000062D38BF4FEAB722002500274FF00008D9
:1018400001920AE00E6808F1010836FA08F207F181
:10185000020705F1040500F0AB80012202FA08FE40
:1018600016EA0E09EED0D1F804C003220CF0030BE7
:10187000ABF1010602FA07F4012E6FEA040A11D84F
:101880008468CE6804EA0A04BE4034438460446835
:1018900024EA0E06CCF3001404FA08F4264346604A
:1018A00006E000BFBBF1030F02D14FF0030B21E0B4
:1018B000C6688C6806EA0A06BC402643BBF1020FE4
:1018C000C66017D16FF00302009B02EA580605F0CC
:1018D0001C020F2453F806C004FA02FE0C692CEA1D
:1018E0000E0C04FA02F242EA0C029A51D1F804C03A
:1018F0000CF0030B02680BFA07F302EA0A021A4320
:101900001CF4403F02609DD041F21803C4F2020370
:101910001A6840F2004E42F001021A601A68C4F2DE
:10192000010E02F001020292029A28F003024FF621
:10193000084C7244CFF6FF7C52F80C3005F00C06D0
:101940000F24B440A343019C04FA06F6334342F843
:101950000C30DEF808204B6842EA090640F20C4CD5
:10196000DC0258BF22EA0906CEF80860C4F2010C76
:10197000DCF800209C0242EA090658BF22EA090668
:10198000CCF80060DEF804209C0342EA090658BF48
:1019900022EA0906CEF80460DEF80020DB0342EA02
:1019A000090658BF22EA0906CEF800604AE700BFE0
:1019B00003B0BDE8F08F000040F22460C2F20000E6
:1019C0000068704740F2000040F22461C2F200005B
:1019D000C2F2000100780A681044086070470000F5
:1019E00080B542F20000C4F20200016841F010012B
:1019F0000160032000F086F8042000F005F800F0F4
:101A000027F8002080BD000070B540F20006C2F249
:101A1000000640F214313278C2F200014FF47A73BA
:101A20000968B3FBF2F20446B1FBF2F1084600F09C
:101A3000CDFC0F2C4FF0010508D838B94FF0FF301E
:101A400021460022002500F031F87460284670BD60
:101A500082B041F21800C4F20200016841F00101B5
:101A60000160016801F0010101910199416841F0B3
:101A700080514160406800F0805000900098042040
:101A800002B000F03FB80000002848BF704700F0E7
:101A90001F01012202FA01F11C2202EAD0004EF2DB
:101AA0000012CEF2000281507047000010B54EF6D1
:101AB0000C5CCEF2000CDCF80030C3F3022E8EF08A
:101AC0000704042C28BF0424BEF103034FF0FF3E9B
:101AD0000EFA04F438BF0023A14399400EFA03F331
:101AE0009A43114300F00F0200F160430901043AE8
:101AF00003F564436244002848BF02F10C031970E7
:101B000010BD00004EF60C51CEF200010A684FF6EF
:101B1000FF031A4060F30A2242F0806040F0FD703B
:101B2000086070472DE9F04182B00446807841F2A8
:101B30003006C007C4F2020656D056F8140C5FEA0D
:101B4000C0080BD456F8140C40F0805046F8140C22
:101B500056F8140C00F080500190019847F20007ED
:101B6000C4F200073868C00512D4386840F48070A9
:101B70003860FFF721FF05463868C00508D4FFF735
:101B80001BFF401B6428F7D9032002B0BDE8F08199
:101B900056F8100C10F4407015D0616801F44071D3
:101BA000884210D056F8100C40F24042C4F2422253
:101BB000012320F4407113600023C007136046F82E
:101BC000101C40F0F98056F8100C616820F4407049
:101BD0000843B8F1000F46F8100C05D456F8140C61
:101BE00020F0805046F8140C2068C10738D18107D6
:101BF0003ED4410744D481064AD4810350D44106DF
:101C000058D441035ED4010764D4C1066AD4810567
:101C100070D4010679D4C10500F18280C10400F1BD
:101C20008A80810400F19080C10200F196808102D7
:101C300000F19C80410200F1A280010200F1A88025
:101C4000C10100F1AE80800105D53068216D20F41E
:101C5000004008433060002002B0BDE8F08100BFC2
:101C60003168A26821F00301114331608107C0D5BA
:101C70003168E26821F44031114331604107BAD53F
:101C80003168226921F44021114331608106B4D5C5
:101C90003168E26921F01001114331608103AED552
:101CA00056F82C1C626D21F48001114346F82C1C5F
:101CB0004106A6D53168226A21F020011143316026
:101CC0004103A0D53168626A21F0400111433160BF
:101CD00001079AD53168626921F4401111433160DE
:101CE000C10694D53168A26921F4400111433160E5
:101CF00081058ED556F82C1C226B21F4000111436E
:101D000046F82C1C01067FF586AF56F8041CA26A23
:101D100021F4F871114346F8041CC1057FF57EAF2C
:101D200056F8041CE26A21F47851114346F8041C69
:101D3000C1047FF576AF3168626B21F48071114385
:101D4000316081047FF570AF3168226C21F400713D
:101D500011433160C1027FF56AAF3168A26B21F097
:101D600080711143316081027FF564AF3168E26BAD
:101D700021F000711143316041027FF55EAF31689F
:101D8000626C21F480611143316001027FF558AF2C
:101D90003168A26C21F4006111433160C1017FF50B
:101DA00052AF3168E26C21F400511143316080017F
:101DB0003FF54BAF4FE700BFFFF7FEFD054641F291
:101DC000883700BF56F8100C80073FF5FCAEFFF7D0
:101DD000F3FD401BB8424FF00300F3D93CE700008D
:101DE000002804BF012070472DE9F04381B042F282
:101DF0000008C4F202080446D8F800000D4600F0BE
:101E0000070081420CD9D8F8000020F007002843D1
:101E1000C8F80000D8F8000000F00700A8427AD106
:101E2000206841F204098107C4F2020907D5D9F8F4
:101E30000010A26821F0F0011143C9F80010C0079A
:101E400060D1D8F8000000F0070085420CD2D8F825
:101E5000000020F007002843C8F80000D8F8000070
:101E600000F00700A84256D12068410707D5D9F8ED
:101E70000010E26821F4E0611143C9F80010000786
:101E800008D5D9F80000216920F4605040EAC1006B
:101E9000C9F80000D9F8001001F00C00082841F240
:101EA0000020C0F27A0012D146F20802C1F3834149
:101EB000C0F60002515CD9F8282046F2180302F05F
:101EC0000F02C0F600039A5CB0FBF2F04843D9F869
:101ED000001045F66272C1F30311C0F60002515CB6
:101EE00040F2143220FA01F140F20400C2F2000084
:101EF0000068C2F200021160FFF786FD002001B009
:101F0000BDE8F083606859F8041C022808D0012855
:101F100026D1890306D4012001B0BDE8F08300BFBB
:101F20008901F8D5D9F8001021F003010843C9F858
:101F30000000FFF741FD064641F28837D9F800005E
:101F4000616800F00C00B0EB810F3FF47AAFFFF74F
:101F500033FD801BB842F1D9032001B0BDE8F08306
:101F60008907D8D5DEE700004C20C4F242200121C9
:101F70000160704740F21430C2F200000068704700
:101F800040F2143041F20401C2F20000C4F2020136
:101F90000068096845F67272C1F30221C0F60002BA
:101FA000515CC8407047000040F2143041F2040117
:101FB000C2F20000C4F202010068096845F67272BC
:101FC000C1F3C221C0F60002515CC8407047000056
:101FD00041F20401C4F202010A6802F00C00082870
:101FE00041F20020C0F27A0018BF704746F20803A1
:101FF000C2F38342C0F600039A5C896A46F2180372
:1020000001F00F01C0F60003595CB0FBF1F0504342
:1020100070470000002804BF012070472DE9F041FF
:1020200082B00446007841F20006C007C4F20206FE
:102030000CD0706800F00C00042840F083803068F9
:10204000800303D56068002800F022812078800793
:102050001ED5706810F00C0F0CD0706800F00C00EA
:10206000082840F08B80706800F4C030B0F5004F55
:1020700040F084803068800703D5E068012840F094
:1020800007813068216920F0F80040EAC100306023
:102090002078000714D4207840072BD4A569002DA0
:1020A00000F0F180706800F00C00082840F0A48077
:1020B000012D40F0D780012002B0BDE8F08100BFC3
:1020C0006069002800F080800020C4F242200121D5
:1020D000C0F88014FFF770FC054600BF706A8007E7
:1020E000D9D4FFF769FC401B0228F7D9032002B0BE
:1020F000BDE8F081F0695FEAC00808D4F06940F0FB
:102100008050F061F06900F080500190019847F232
:102110000007C4F200073868C00549D4386840F4A5
:1021200080703860FFF748FC054600BF3868C0057E
:102130003ED4FFF741FC401B6428F7D9032002B0CE
:10214000BDE8F081706800F00C00082806D17068C6
:1021500000F4C030B0F5803F3FF471AF6168306883
:10216000002900F0E380B1F5A02F00F0D780B1F591
:10217000803F40F0F18040F48030F3E0E0680028D8
:1021800040F20000C4F242205AD001210160FFF762
:1021900013FC0546306880073FF573AFFFF70CFC72
:1021A000401B0228F6D9032002B0BDE8F08100BF31
:1021B000A168306A002977D005296DD0012940F047
:1021C0008B8040F001008DE00020C4F2422000210D
:1021D000C0F88014FFF7F0FB054600BF706A800767
:1021E0007FF559AFFFF7E8FB401B0228F6D9032023
:1021F00002B0BDE8F08100BF0027C4F242270020F2
:102200003866FFF7D9FB022D05460DD130688001F5
:1022100040F1BA80FFF7D0FB401B02284FF00300CB
:10222000F4D902B0BDE8F081306880012BD5FFF70A
:10223000C3FB401B02284FF00300F5D9F1E700BFB4
:1022400000210160FFF7B8FB054600BF306880073A
:102250007FF51EAFFFF7B0FB401B02284FF00300D5
:10226000F4D9DEE77168F06AE26901F4C0339342A1
:102270000ED1226A01F47011914209D1616A00F015
:102280000F00884204D1002002B0BDE8F08100BFF9
:10229000012002B0BDE8F08140F004003062306AF5
:1022A00040F001001EE000BF20F001003062306A03
:1022B00020F004003062FFF77FFB054641F28837CB
:1022C000306A800720D5FFF777FB401BB8424FF0FC
:1022D0000300F5D9A5E700BF20F001003062306AA5
:1022E00020F004003062FFF767FB054641F28837B3
:1022F000306A800708D4FFF75FFB401BB842F7D96C
:10230000032002B0BDE8F081B8F1000F3FF5C6AE82
:10231000F06920F08050F061C0E600BF40F48020FA
:102320003060306840F480301CE000BF20F4803022
:102330003060306820F480203060FFF73DFB0546B8
:10234000306880037FF582AEFFF736FB401B6428C0
:102350004FF00300F4D964E720F480303060306837
:1023600020F480203060FFF727FB054630688003AB
:102370003FF56CAEFFF720FB401B6428F6D9032025
:1023800002B0BDE8F08100BFF06A626A20F00F0081
:102390001043D4E90713F062706820F476101843F4
:1023A0000843706001203866FFF706FB044600BF53
:1023B000306880013FF567AFFFF7FEFA001B022887
:1023C0004FF00300F4D92CE770470000411E0020B5
:1023D000B0EB116F1CBF012070474EF21002CEF21D
:1023E000000251604EF62351CEF20001F0230B7033
:1023F0000721906011607047FFF7E6BF90F83C201E
:10240000012A04BF0220704710B5D1E90232D1E998
:1024100000CE22F47C5223F470531A4348F2FF7327
:10242000CFF6F07303EA0E0342EA030E0A692CF4B6
:1024300077234EEA030C22F476224B6942EA0C021F
:102440001A438B6A22F4742223F4702342EA030CA9
:10245000D1F818E0046842F60043C4F201039C423C
:102460004CEA0E430BD045F20002C4F20102944242
:1024700005D043F20042C4F20102944210D123F08D
:102480007C7ED1E9073C496A0022CFF6F04202EA9D
:10249000015141EA0E0123F00072114341EA0C039D
:1024A0000021636480F83C10002010BD90F83C20AF
:1024B000012A4FF0020258D0B0B580F83D200268E2
:1024C00042F6004C54689368C4F2010C45F2000EC9
:1024D0006245C4F2010E18BF724529D14D6824F43B
:1024E00070042C430D6824F070042C4342F6FF3531
:1024F000C4F20105AA4254600ADD43F6FF74C4F237
:102500000104A2421CDC624522D043F200451BE0DC
:10251000B2F1804F1CD040F20045C4F20005AA423F
:1025200016D040F60005C4F20005AA4210D014E00F
:1025300043F20045C4F20105AA42CFD0D2E700BF62
:10254000724505D044F20005C4F20105AA4204D147
:10255000896823F08003194391600121002280F8EB
:102560003D1080F83C20BDE8B040104670470000A8
:10257000002804BF012070472DE9F047044690F879
:102580003D000D4628B9002084F83C00204600F0AC
:102590004BF8022084F83D0020684BF6F872816801
:1025A000CFF6FE7211408160211D02F0B5FA20685D
:1025B0004FF6FF7881688269D0F820C0D5E9003EE7
:1025C000D5E9026A43EA0109AB6922EA080246EA50
:1025D00003234FF6FC46B343D5E9076742EA0A02F4
:1025E00029691A4342EA062242EA01112CF0AA02A2
:1025F0006B6942EA0E0241EA073142EA0312C0F86F
:10260000089081610262012084F8480084F83E004D
:1026100084F83F0084F8440084F8450084F83D00C5
:102620000020BDE8F0870000F0B587B00068002505
:10263000B0F1804F0695CDE904550395029501D080
:1026400007B0F0BD41F21400C4F20200816802AC90
:1026500041F0010181608168022601F001010191D0
:1026600001990168012741F400310160016801F41A
:10267000003101910199016841F4802101600068F5
:10268000214600F48020019001984FF40040029010
:102690004FF09040CDE9036505950697FFF7B2F836
:1026A0000820CDE9020640F20040C4F600002146B1
:1026B000CDE904550697FFF7A5F807B0F0BD000077
:1026C0002DE9F04186B0006842F60041C4F20101F4
:1026D00088424FF000000590CDE90300CDE90100EC
:1026E00002D006B0BDE8F08141F21400C4F202004D
:1026F000016801AC41F4003101600168022501F478
:1027000000310091009901684FF0010841F48021E7
:1027100001600068032700F480200090009880206A
:10272000019006264FF0904021460295CDF80C808E
:1027300004970596FFF766F840F20040C4F60000E3
:102740002146CDE90175CDE903870596FFF75AF8D3
:102750004FF4E060CDE901054FF090402146CDE90E
:1027600003570596FFF74EF806B0BDE8F08100006C
:1027700090F83C30012B04BF022070474FEAB202B0
:10278000052A00F2CF812DE9F041DFE812F00700C1
:1027900029019300ED005500810100BF03681D6A07
:1027A0001A6AA3F1804622F001021A621A46D3F88F
:1027B000048052F818CF8F68A6F59636D1F800E05D
:1027C00025F002054FEAB626092E45EA07050BD883
:1027D0000127B74040F2E52427421FBFCC6825F00F
:1027E0000C0524F004042543092E0CD80124B44020
:1027F00040F2E52634421FBFD1E9054628F4407770
:102800003C4344EA06084FF68C74CFF6FE740CEA9B
:10281000040747EA0E07C3F804809F614F680969FF
:102820005F631D629F6947F008079F619F6927F0FA
:1028300004079F616AE100BF0368D3F820C01A6AE9
:10284000A3F1804722F480321A621A46A7F5963720
:102850005D6852F8548FD1F800E08E684FEAB727D0
:10286000092F0AD80124BC4040F2E5273C421EBF94
:102870004C6925F4803545EA04252CF4003747EAF5
:1028800006474FF68C76CFF6FE76033606EA080644
:1028900046EA0E065D605E654E6809699E651F62C8
:1028A0005F6D47F008075F655F6D27F004075F65A0
:1028B0002CE100BF036842F600461D6A1A6AC4F2A2
:1028C000010622F480721A621A46D3F804C052F844
:1028D0001CEFB3428E68D1F8008025F4007545EAFC
:1028E00006250BD045F20006C4F20106B34205D01E
:1028F00043F20046C4F20106B34207D1CE6840F26B
:10290000FF47360225F44065BE433543A3F18046B8
:10291000A6F596364FEAB626092E0DD8012707FAF6
:1029200006F640F2E5273E421FBFD1E905672CF4C9
:102930004054374344EA071C4FF68C74CFF6FE74BC
:102940000EEA040747EA0807C3F804C0DF614F68CE
:102950000969DF631D62DF6947F00807DF61DF692E
:1029600027F00407DF61D1E00368D3F820C01A6ABA
:10297000A3F1804722F480521A621A46A7F59637CF
:102980005C6852F81C8FD1F800E08E684FEAB727D8
:10299000092F0AD80125BD4040F2E5273D421EBF60
:1029A0004D6924F4804444EA85142CF4005747EA26
:1029B000063748F6FF46CFF6FF6606EA080646EAFF
:1029C0000E265C60DE614E6809691E641F62DF6965
:1029D00047F40067DF61DF6927F48067DF6194E017
:1029E000036842F600461D6A1A6AC4F2010622F024
:1029F00010021A621A465C6852F818CFB3428E6809
:102A0000D1F800E025F0200545EA06150BD045F287
:102A10000006C4F20106B34205D043F20046C4F2F8
:102A20000106B34207D1CE686FF0400725F0C0051C
:102A300007EA06163543A3F18046A6F596364FEA17
:102A4000B626092E0DD8012707FA06F640F2E5272B
:102A50003E421FBFD1E9056724F440643E4344EA87
:102A6000860448F6FF46CFF6FF660CEA060747EAFB
:102A70000E275C609F614F6809699F631D629F69B3
:102A800047F400679F619F6927F480679F613CE07E
:102A90000368D3F820C01A6AA3F1804722F4801299
:102AA0001A621A46A7F596375D6852F8548FD1F826
:102AB00000E08E684FEAB727092F0AD80124BC40EE
:102AC00040F2E5273C421EBF4C6925F4802545EACB
:102AD00084252CF4001747EA065748F6FF46CFF640
:102AE000FF6606F5407606EA080646EA0E265D60B1
:102AF0005E654E680969DE651F625F6D47F40067B9
:102B00005F655F6D27F480675F650902136819438D
:102B100011600021BDE8F041002280F83C20084609
:102B2000704700BF0121002280F83C200846704712
:102B3000002804BF0120704710B5044690F83D00FE
:102B400028B9002084F83C00204600F023F8022039
:102B500084F83D002068211D01F0DEFF012084F88B
:102B6000480084F83E0084F83F0084F8400084F870
:102B7000410084F8420084F8430084F8440084F85B
:102B8000450084F8460084F8470084F83D000020A2
:102B900010BD000080B586B0006842F60042C4F265
:102BA000010200219042CDE90411CDE90211019109
:102BB00002D006B080BD00BF41F21400C4F2020092
:102BC000426842F400624260426802F4006200928D
:102BD000009A026842F400320260006800F400309B
:102BE0000090009840200190022002900120CDE941
:102BF00003010620059001A94FF09040FEF702FE68
:102C000006B080BD10B5C0B10446C06F28B9002021
:102C100084F87800204600F025F82420E06720683A
:102C2000616A026822F00102026011B1204602F0DE
:102C300065FA204602F08AFB10B1012010BD00BFEA
:102C40002168486820F490404860886820F02A0095
:102C50008860086840F0010220460A60BDE8104024
:102C600002F0C0BA80B586B0006844F20042C4F2F7
:102C7000000200219042CDE90411CDE90211019139
:102C800002D006B080BD00BF41F21400C4F20200C1
:102C9000826842F400328260826802F4003200925C
:102CA000009A026842F400320260006800F40030CA
:102CB000009000980C2001900220CDE90201032031
:102CC00004900720059001A94FF09040FEF79AFD6F
:102CD00006B080BD01F0D6FFFEE700008179012932
:102CE00018BF7047B0B5C179012927D0032919D081
:102CF000022912D1D0E90712002304460846042114
:102D000082F8203001F0BAFCE069B4F91610228B89
:102D100001F040FC0146204651B903248471BDE80E
:102D2000B0407047016A012281F82020426ACA60DF
:102D300002248471BDE8B040704700BFD0E907129B
:102D4000002305460846032182F82030032401F0C1
:102D500095FCE869B5F914102A8B01F01BFC0146BB
:102D60002846002918BF02248471BDE8B04070478E
:102D7000818240F20111C1800321028301727047F8
:102D800043880B4323EA02028388428019438180EF
:102D900070470000408870478188408841EA0040C1
:102DA000704700008088704746F634420114CFF621
:102DB000FF7251434BF21A62CFF6FF7212FB001101
:102DC000CA1321F3CF31090480B212F5004FDCBFE2
:102DD0000021C8F2010108447047000010B5044604
:102DE000084600F06BF810FB04F12214031403FBF7
:102DF000121110FB14F310FB2430C31320F3CF3057
:102E0000CA1321F3CF31000489B213F5004FDCBFA0
:102E10000020C8F2010012F5004FD8BF48F20101AE
:102E2000084410BD10B50446084600F047F821B22A
:102E3000021410FB14F302FB113110FB04F210FB1F
:102E400034204900C1EAE03010BD00000128BCBFB9
:102E5000002070474FF400520D21B0F5001F98BFBD
:102E6000802298BF072120FA01F1531E81EA030C4A
:102E70001943A1EB5C0191421DD0B0FBF1F20A4471
:102E800052089142114616D0B0FBF2F111444908A4
:102E90008A4210D0B0FBF1F20A4452089142114626
:102EA00009D0B0FBF2F1114449088A4203D0B0FBCB
:102EB000F1F00844410808467047000081B2022240
:102EC00082EA9132C0F387110FF20400DFE802F0CA
:102ED000022E122046F23800C0F6000030F8112011
:102EE00081F0FF0130F8111050424942C1EA004020
:102EF000704700BF46F23802C0F6000232F81100F7
:102F000081F0FF0132F81110C1EA0040704700BFA4
:102F100046F2380281F0FF00C0F6000232F81110CC
:102F200032F810004942C1EA0040704746F23802C8
:102F300081F0FF00C0F6000232F8100032F81110E4
:102F40004042C1EA004070477047000070470000EF
:102F500010B540F21044C2F200042078002808BFE7
:102F600010BD608880B101386080A08810B1A08851
:102F70000138A080E08810B1E0880138E080BDE829
:102F8000104002F041B800BF01F0B4FEFFF7DEFFD1
:102F900001206080A0880028E9D1EBE7002808BF65
:102FA000704710B540F21044C2F2000400212170B5
:102FB00040F2C401C2F200010160FDF777FC40F26B
:102FC0004810C2F2000000F0A3F840F25030C2F204
:102FD000000002F04BFC40F24030C2F2000001F071
:102FE00095F940F20800C2F2000001F061FA40F2E7
:102FF0001830C2F2000001F089F940F22830C2F224
:10300000000000F051F8FFF79FFF02F037FF0120AA
:103010002070BDE81040704780B5FEF7ABFF44F666
:10302000D351C1F26201A0FB0101C809FFF7CEF93B
:1030300040F20400C2F2000001684FF0FF300022AD
:10304000FEF734FD40F21860C2F20000FFF7A6FF61
:10305000BDE8804002F07ABE0246007810B1002040
:10306000108170474FF6FF70814250881EBF091AC9
:1030700000EB11205080B2F90E30518980B2012B43
:1030800006DB884206D891898842E8D309E000BF70
:10309000884203D208201081704700BF918988427E
:1030A000DDD8108910817047017829B1818800220C
:1030B00002814180704700BFB0F90E200021012A33
:1030C000B8BF4FF0FF31418070470000B0B50446F3
:1030D000B0F92200B0B1A26AE38C8A1A504340FAD8
:1030E00003F52046A16200F01DF8A18A28440AB227
:1030F000904204DCB4F916108842C8BF014608B2F9
:10310000B0BD00BF2046BDE8B04000F00BB80000E5
:10311000018C026841840021C0E90121816270476D
:103120008160704770B50246B0F90430B0F906000E
:10313000B2F914C0B2F9164001FB03FEC0B1D2E9E6
:10314000025301FB00F601FB005035400121C8F29B
:103150000001B5F1FF3FC8BF0146002848BF014646
:10316000994206DC13699942C8BF0B4601E000BFD3
:103170000023908BD18B4EFA00F043FA01F1084402
:10318000844507DA1FFA8CF4ACEB0001194420B235
:10319000916070BD211AD8BF0021A042C8BF04466B
:1031A000194420B2916070BD816800238A68D1F80B
:1031B000121021FB0231CA17B0F9003001EB1241A5
:1031C000C3EB214101EB117103EB11110180704739
:1031D00010B5012908D079B9044600F023F9E16857
:1031E000204688470AE000BFB0F8601031B10139CD
:1031F0000A04A0F8601003D0002010BD012010BD0B
:10320000C168EEE7014690F8810001284FF0000008
:1032100004BF81F88100022091F88020012A02BFBA
:103220004030002281F8802091F88220012A02BFDC
:1032300000F58060002281F88220704710B50446B6
:1032400000F0F0F8012104F1780084F8801010BD3E
:103250004B6C024643F480604864012102F178001F
:1032600082F8811082F883107047000070B5B0F8C2
:103270004E20B0F870400BB2091453436143002252
:10328000A2EB410686EA030506EA0302F11702EB08
:103290006505F21A61EBE3715FEA51014FEA320111
:1032A000B5F1FF3F4FEA940C14DD00292CD4012224
:1032B00080F87A206A1AD31702EB93320CEBA24EF5
:1032C00090F886200EEB514C012AAEEB554333D1DA
:1032D000022115E0B1F1FF3F34DD002E48DD02216F
:1032E00080F87A10711BACEB914E694290F8862001
:1032F0000EEB5143012A03EB564C63D14FF40031DE
:103300008165012275E000BF002E45DD002280F8B6
:103310007A20721A0CEB924E494290F87D20AEEB67
:10332000514CACEB56431AB990F88610012973D171
:103330000221C0F2010141E0A0F858C0A0F85AE013
:103340001A4656E0042280F87A206A1AD31702EB54
:1033500093320CEBA24E4942AEEB514C90F88610E2
:103360006A4201290EEB524332D1012111E000BF24
:10337000032280F87A208A1BACEB924E0EEB514C64
:1033800090F88610724201290CEB524326D14FF47B
:103390008031816502222CE0052180F87A10A91B7A
:1033A0000CEB914E90F88610AEEB5543724201291A
:1033B000A3EB524C18D10121C0F202018165002219
:1033C00017E000BFA0F858C0A0F85A30724610E0CD
:1033D000A0F85830A0F85AE00AE000BFA0F8583032
:1033E000A0F85AC0724604E0A0F858E0A0F85A309D
:1033F00062462EEAEE71A0F850102CEAEC71A0F8AB
:103400005C20A0F8521023EAE3714269A0F854103E
:10341000BDE87040104700BFA0F858E0A0F85AC0BF
:103420008EE700004168084781680847816801F01D
:103430004051B1F1805F4FF6C071C7F6FF7131D0D6
:1034400081B0826801F1704322F04052826082684C
:103450001A4042F08052826040F21432C2F20002FE
:10346000126842F663539209C0F23E53A2FB032353
:103470009A090092009AA2B1009A013A0092009A29
:103480007AB1009A013A0092009A52B1009A013A38
:103490000092009A2AB1009A013A0092009A002AFA
:1034A000EAD101B0826801F140431A4042F0004283
:1034B000826000BF8268B2F1FF3F10DC8268B2F127
:1034C000FF3F0CDC8268B2F1FF3F08DC8268002A13
:1034D000F0D404E082680A4042F00102826002688F
:1034E000D20717D182680A4042F001028260026866
:1034F000D2070FD182680A4042F00102826002685E
:10350000D20707D182680A4042F001028260026855
:10351000D207DFD082680A4042F0080282608268E7
:103520000A4042F0200282608268920609D58268D1
:10353000920644BF82685FEA826202D58268920680
:10354000F2D4C26C012363F38712C2648268114013
:1035500041F008018160C16841F40011C160704709
:103560002DE9F04782B00446D4F89C1000686269E7
:103570000D684FF00008264601900092C4E92288A9
:10358000C4F8908006F89A8F286A40F2555920EACC
:1035900009002862EFF3108072B643F2E170C0F6C2
:1035A0000000206043F6A170C0F60000606140207A
:1035B000A4F898004FF0040A204684F89BA084F8F1
:1035C0007AA062B600F076FDD4F89C0004F15607AC
:1035D00090F8842028463946334602F08FFC204676
:1035E00000F044FD86F80080EFF3108072B643F6D9
:1035F0002D00C0F600002060204684F89B8084F8EF
:103600007A8062B600F056FDD4F89C00394690F8F6
:1036100084202846334602F071FC204600F026FD47
:1036200004F1880207CA09090009C4F88800B4F83F
:1036300056001209C4F88C100028C4F8902004BF6A
:10364000012084F87F00EFF3108072B601982060AB
:103650000098606162B6A86920F00800A861A869B6
:1036600020F40060A861E86920F00800E861B4F87F
:10367000940040086863A863E863A86940F0080004
:10368000A861A86940F40060A861E86940F00800FA
:10369000E861286A40EA0900286284F87AA084F880
:1036A000838002B0BDE8F087D0E92223D0F89000F3
:1036B000C1E900238860704710B5D0F89C2090F8CD
:1036C0007A30D2F800E002EB8302D2F850C0946E58
:1036D000DCF88020D4F880C0DEF80440052B24F00C
:1036E0007004CEF8044067D8012404FA03F313F001
:1036F000060F1FD113F0180F36D0D0E9223448F24C
:10370000010E9B1A47F6FF729342CFF6FF7EB8BFB9
:103710001A467245A4EB0C03D8BF724613F5004F4E
:103720000A803CDDB3F5004FA8BF47F6FF734B801E
:103730004DE000BFD0F88830D0F890409A1A47F694
:10374000FF7348F2010E9A42A8BF1A46CFF6FF7ED9
:103750007245D8BF72461444ACEB040CBCF5004F64
:103760000A8019DB4B8032E0D0E9233448F2010EA5
:103770009B1A47F6FF729342A8BF1346CFF6FF7E0F
:103780007345D8BF73461C44ACEB040CBCF5004F2A
:103790004B8009DB0A801AE01CF5004F10DC48F270
:1037A0000103A1F802E012E01CF5004F0CDC48F226
:1037B0000102A1F800E00AE00A884B8807E000BF98
:1037C0006346A1F802C002E0A1F800C06246D11829
:1037D0004942A0F86220A0F86430A0F8661010BD3D
:1037E00080B5D0F89C2090F89BC0136802EB8C0247
:1037F000D2F850C0926EDCF880E0D2F880C05A68EF
:1038000022F070025A6090F89A200F2A0AD8D0E964
:10381000222372446344C0E9222390F89A200132A3
:1038200080F89A200020086080BD0000D0F89C201D
:1038300090F89B3002EB83039B6E1268D3F880C034
:10384000536823F07003536090F89A200F2A09D828
:10385000D0F890206244C0F8902090F89A2001326D
:1038600080F89A2000200860704700002DE9F04F92
:1038700081B0D0F89C208046D2F850B0D2E90070D8
:10388000D2E9024AD2E9049E966EDBF804304FF08A
:10389000020C23F00403CBF804300423CBF80030EF
:1038A000DBF8041021F02001CBF804102021CBF824
:1038B0000010756825F0040575603360736847F281
:1038C000004523F02003736042F20C03C4F20005AC
:1038D0003160CEF2040305F538411D688F4208BF00
:1038E0004FF0010C45EA0C01196048B1016880698C
:1038F0000B6843F001030B60016841F001010160B6
:10390000002C46D092F8850001283AD0206800F0BB
:103910007000402814D147F20045C4F20005B2F807
:103920008000E9684FF6F07399430843E8606868DF
:1039300040F0010068602868C00722D1012019E02A
:10394000206800F0700050281BD147F20045C4F2F7
:103950000005B2F88000A9694FF6F0739943084357
:10396000A861686840F0020068602868C00308D455
:103970004FF4803047F20043C4F200031968084353
:103980001860206840F001002060206840F000408E
:103990002060BAF1000F0BD0DAF8000040F001000F
:1039A000CAF80000DAF8000040F00040CAF8000051
:1039B000B9F1000F0BD0D9F8000040F00100C9F8B0
:1039C0000000D9F8000040F00040C9F80000BEF146
:1039D000000F4DD092F8880001283DD0DEF800009D
:1039E00000F07000402815D147F20043C4F20003F4
:1039F000B2F88200D9684FF6F07291430843D8605C
:103A0000586840F0010058601868C00724D10120B0
:103A10001BE000BFDEF8000000F0700050281BD152
:103A200047F20043C4F20003B2F8820099694FF6EE
:103A3000F072914308439861586840F00200586062
:103A40001868C00308D44FF4803047F20042C4F233
:103A50000002116808431060DEF8000040F0010029
:103A6000CEF80000DEF8000040F00040CEF8000084
:103A7000DBF80800C00702D15846FFF7D7FCB06852
:103A8000C00702D13046FFF7D1FC3868022120F090
:103A900001003860786861F306107860B86940F01A
:103AA0000800B861B86940F40060B861F86940F096
:103AB0000800F861F86940F40060F861786940F046
:103AC00001007861D8F89C0090F88910022905D18E
:103AD00090F88A10012904D00FE000BF98F8781000
:103AE00079B990F88400032807D1012038637869F8
:103AF00040F00100786103203863B8F89400013881
:103B00007862786840F0700078606FF0800038610B
:103B10003869C0051ED4F86840F2555140F0800065
:103B2000F860386A084338626FF001003861F8685D
:103B300040F00100F8604020A8F89800CBF80000A1
:103B4000DBF8040040F04000CBF8040001B0BDE811
:103B5000F08F00BF4FF61C40CFF6FF706FF48071FE
:103B600039613A69D20542BF39613A695FEAC252A6
:103B7000D1D539613A69D20542BF39613A695FEA04
:103B8000C252C8D5002800F10400E9D1C3E7000003
:103B900090F87E10012918BF704780B5D0F89C10AE
:103BA0004FF68C7C0968CFF6FE7C8A6948F6FF4E9A
:103BB00002EA0C0260328A610A6ACFF6FF6E42F0B6
:103BC00001020A6290F87B20022A27D0012A4BD1F9
:103BD0000A6A42F004020A62B0F8942052084A636A
:103BE0008B6903EA0E0343F4C0438B610B6A43F015
:103BF00010030B620B6A43F040030B628A63CB69CC
:103C000003EA0C0343F06003CB610B6A43F4807357
:103C10000B620B6A43F480633EE000BF0A6A22F045
:103C200004020A62B0F8942052084A638B6903EADE
:103C30000E0343F4C0438B610B6A43F010030B6225
:103C40000B6A23F040030B628A63CB6903EA0C031F
:103C500043F06003CB610B6A43F480730B620B6A21
:103C600023F4806318E000BFB0F8942052084A6340
:103C70008B6903EA0E0343F4C0438B610B6A43F084
:103C800010030B628A63CB6903EA0C0343F0600301
:103C9000CB610B6A43F480730B62CA63EFF310814C
:103CA00072B644F2E91243F2B961C0F6000244F27E
:103CB0006D03C0F60001026144F2B502C0F60003D4
:103CC000C0F60002C0E900130021826062B680F8ED
:103CD0007E10BDE88040704790F87E1000294CD1DE
:103CE000D0F89C104FF68C7C0968CFF6FE7C8B696F
:103CF00003EA0C0360338B610B6A43F001030B6230
:103D00000B6A23F004030B6200234B6390F87B30B3
:103D1000022B13D0012B22D18B6948F6FF42CFF63C
:103D2000FF621A4002F580528A610A6A22F010028C
:103D30000A620A6A42F0400310E000BF8A6948F64E
:103D4000FF43CFF6FF631A4002F500528A610A6A08
:103D500042F010020A620A6A22F040030B62CA694A
:103D600002EA0C0242F07002CA610A6A22F480720E
:103D70000A620A6A22F480620A62EFF3108172B664
:103D800043F6B56243F6ED51C0F6000244F26D030E
:103D9000C0F60001026143F63162C0F60003C0F6CE
:103DA0000002C0E900130121826062B680F87E1033
:103DB00070470000D0F89C20B0F894301268594346
:103DC000090CA0F850105163032180F87A10516853
:103DD000B0F8562011F0700118BF0121012A02BF6E
:103DE0000021A0F85610012108467047D0F89CC069
:103DF000DCF800305A6822F070025A6090F87A209D
:103E0000D0F88C000CEB8202926ED2F88020801ADF
:103E100047F6FF729042B8BF024648F20100CFF663
:103E2000FF708242D8BF02460A804A807047000075
:103E3000B0B5D0F89C104FF0010E0A68916921F0DE
:103E400008019161D16921F40061D161C2F834E0C7
:103E5000B0F89430053B1364936943F00803936111
:103E6000D36943F40063D361536C43F480635364B8
:103E7000536C43F40043536490F87B30022B13D10E
:103E8000126A40F2555C182100F13C04B0F8485029
:103E900012EA0C0F08BF28211CCC5550B0F84A205C
:103EA0005A50B0F84C10A162032180F87A1080F8C3
:103EB00084E0B0BDD0F89C1009688A6922F008023D
:103EC0008A6100224A638A6942F008028A614A6C68
:103ED00042F400424A6490F87B10022918BF7047F0
:103EE00000F13C0CB0F848109CE80C109161B0F85F
:103EF0004A109962B0F84C00CCF8280070470000D6
:103F000080B5D0F89C1009688A6922F008028A619D
:103F10008A6922F400628A61CA6922F00802CA61D1
:103F2000CA6922F40062CA6100224A638A63CA63D2
:103F3000B0F89420053A0A648A6942F008028A615E
:103F40008A6942F400628A61CA6942F00802CA6161
:103F5000CA6942F40062CA614A6C42F480624A64EF
:103F60004A6C42F400424A6490F87B20022A0ED147
:103F700000F13C0EB0F848209EE808509A61B0F875
:103F80004A20CCF81820B0F84C20CEF81820032294
:103F900080F87A20086A40F48050086280BD0000F2
:103FA00090F89B10D0F89C2080F87A101168B0F837
:103FB0005020B0F894304A63B0F852208A63B0F8C9
:103FC00054005A1EC86390B20864486810F070002C
:103FD00018BF01207047000010B5B0F894E0B0F8A9
:103FE0005830D0F89CC0AEEB0302BCF8481092B237
:103FF0008A4205D9042180F87A10AEF1010315E058
:10400000B0F85A401C1BA4B2B4EB420F04D9BCF860
:104010004A105B1A0AE000BF0B4499B2714505D300
:104020008021A0F89810D94301EB4E03DCF8001072
:10403000B0F850204A63B0F852208A63B0F85400B8
:10404000C86398B20864486810F0700018BF012077
:1040500010BD0000D1E900238968C0E92223C0F81F
:104060009010012180F87F1070470000D0F89C105C
:104070000022096880F8842080F87C204A6C22F4B1
:1040800000424A6490F8831091B990F87B1002299D
:1040900018BF704700F13C0CB0F848109CE80C10B9
:1040A0009162B0F84A109962B0F84C00CCF8280040
:1040B00070470000D0F89C100022096880F87C202E
:1040C0008A6922F008028A618A6922F400628A61A0
:1040D000CA6922F00802CA61CA6922F40062CA6190
:1040E000B0F894205308053A4B638B63CB630A64A2
:1040F0008A6942F008028A618A6942F400628A6130
:10410000CA6942F00802CA61CA6942F40062CA611F
:104110004A6C42F480624A644A6C42F400424A6447
:1041200090F87B20022A19D180B5096A40F2555CCB
:10413000182311EA0C0F00F13C0CB0F848E008BF5E
:1041400028239CE8061041F803E0B0F84A10D1504B
:10415000B0F84C104CF80310BDE88040012180F805
:104160008410704770B5D0F89CE00146DEE900C0CD
:1041700000B391F87A300EEB8302126DD46C34B137
:10418000D46C24B1D46C14B1D46C002CF6D100EBF7
:10419000830250F823009469156B066826F00C061C
:1041A00035430560906C226822F00C0210432060B9
:1041B00002E000BF91F87A300EEB8302B1F898006C
:1041C0009369166D0343956EF364126B1043E864B4
:1041D000DCF80400402240F07000CCF8040001F14B
:1041E0007800A1F8982070BDD0F89C2001231268B7
:1041F00080F87C30936923F008039361936923F47A
:1042000000639361D36923F00803D3615163916321
:10421000D163916941F008019161916941F40061B4
:104220009161D16941F00801D161516C41F40041C3
:10423000516490F87B10022918BF704700F13C0CC4
:10424000B0F848109CE80C109161B0F84A109961E0
:10425000B0F84C00CCF818007047000040F218404D
:10426000C2F200000178002908BF7047417802229D
:1042700000EB81004068037A006803EB43014FEADA
:10428000836C9A40092B4FEA015305D842EA030197
:1042900041EA0C0105E000BFA3F1F07141EA0C0115
:1042A0001143026B890E61F38A120263016C0421CF
:1042B000016081684FF6C072C7F6FF721140043189
:1042C0008160704740F2184CC2F2000C9CF800105C
:1042D000002908BF704780B59CF801200CEB8200D4
:1042E000D0F804E0DEF8000003685B0704D5006C3A
:1042F00020F00F00AEF80A00481E801A18BF501CAC
:104300008CF80100BDE8804070470000B0B540F275
:104310001842C2F200021578032D00F2848002EBED
:10432000850358606B1C1370026805739368DB0784
:104330004ED153684FF6C07E23F00403536004232C
:104340001360D2F804C0C7F6FF7E2CF02003536040
:1043500020231360D2F808C00EF1404303EA0C0397
:1043600003F10043936000BF9368B3F1FF3F11DC9A
:104370009368B3F1FF3F0DDC9368B3F1FF3F09DCB5
:104380009368002BF0D405E0936803EA0E0343F032
:10439000010393601368DB071AD1936803EA0E03E5
:1043A00043F0010393601368DB0711D1936803EABC
:1043B0000E0343F0010393601368DB0708D1936891
:1043C00003EA0E0343F0010393601368DB07DBD0BD
:1043D000136B022123F00F031363037A092B07D811
:1043E000994041EA836103EB430341EA03530CE044
:1043F00001FA03FC002103EB4303CFF6206101EB3C
:10440000035141EA0C0141F00073C3F3406102EB38
:10441000810140684A69C3F3045307249C40A243C6
:104420009840104348610020042D38BF0120B0BDE2
:1044300000210122C0E90111C0E903114261704766
:104440004FF6FF72914204BF00207047C388B0F856
:104450000CC0CA1A418903EB12236145C3800BD1FA
:104460009AB28A4220D8018A00238A4238BF0123A7
:104470009900018108467047028A9BB2934203D299
:104480000421018108467047827B2AB18B424FF09C
:104490000001EED9817307E0634505D201218173E4
:1044A00000210181084670470221018108467047BA
:1044B0004189028A11444908C1807047B0F90C0053
:1044C000704700008068704770B50B88024619B2CB
:1044D00083EAE133548A0078A3EBE131938A92F8BE
:1044E00003C025B21FFA83FED38A84EAE534064668
:1044F00089B2A4EBE534158B60453CBF0026013042
:104500009BB2714588BF0646A4B2994238BF0646A1
:10451000AC4288BF0646F0B2B0EB0C0018BF0120D9
:10452000167070BDB0B5044600780422042808BF98
:104530000822E168A558022904D3E269013915442B
:1045400005E000BF012903D161880D040021E1606D
:1045500003280DD16069FFF7B1FFC0EB1541206959
:1045600009B2FEF7DFFD6560050400B2A560B0BDCD
:10457000280C00B2A560B0BD0178042906D003293B
:1045800018BF704700690021FEF7CABD0021816095
:104590007047000080B590F800E0BEF1040F0DD127
:1045A000B0F92C304FF0000C99423EDB438D99421C
:1045B0003BDC9AB3D0F808C016E000BF438C9942A8
:1045C00003DCB0F92830994202DA002080BD00BF38
:1045D000838CD0F804C0994205DAB0F926309942AC
:1045E000C4BF002080BD9AB1038C41805A4344F679
:1045F000D353C1F26203A2FB03230122A1EB1C41AE
:1046000002EB9312090491FBF2F1C2600AE000BFD1
:10461000BEF1030F02D10904416001E00904816089
:104620000021C1604FF0010CC161604680BD0000F7
:1046300010B504464069FFF741FF0004606010BDFB
:10464000D0F8320070470000B0F930007047000029
:1046500080B590F82E30B0F830C00370438E4FEA2A
:104660000C4C1B044FF0000EA0F802E0C0E901C39F
:10467000C0E903E14261C0F81CE080BD0170002187
:10468000C16070474161704710B540F21034C2F20A
:1046900000042078022804D1FDF794F9FDF7ACFE60
:1046A000002001302070FEF753FC40F25020C2F28F
:1046B0000000BDE8104000F0EDB80000B0B5A6B0B5
:1046C00001A8002404305421CDE92044CDE91E4442
:1046D000FBF706FE01201C901F904FF4E0104FF4F2
:1046E00080310225CDE924041CA81D91CDE9225179
:1046F000FDF790FC20B1EFF3108072B6FEE700BF2B
:104700000F20CDE917054FF48060CDE91A0417A8F2
:1047100002211994FDF764FB20B1EFF3108072B60B
:10472000FEE700BF41F20200C0F21000019000203D
:104730004FF480710490CDE90E1001A8FDF7F2F955
:1047400020B1EFF3108072B6FEE700BFFDF70CFC5E
:1047500026B0B0BD4EF68850CEF20000016841F49C
:104760007001016070470000B0B5044690F8620027
:10477000022803D1002084F86000B0BD94F86100E5
:10478000042877D1A06E0025406984F85250FFF7C5
:1047900099FE94F86010032901D0002966D194EDA8
:1047A0000C0AB2EE021A20EE010AB0EE002A82EEE6
:1047B000002A03EE100A9FED354AB8EEC33A83EEA5
:1047C000043AB2EE085A40F6DB71B1EE0C6AB2EE72
:1047D000007A0120C4F2C90184F85100E160E56269
:1047E000BDEEC22AB8EEC22A20EE020A80EE011AFD
:1047F0009FED272A84ED000A33EE024A84ED024A37
:10480000B0EE084A84ED013AC4E90F5584ED123A3E
:1048100084F8600021EE055A21EE055A21EE055A72
:1048200082EE052A31EE010A84ED050AB1EE085A3E
:1048300021EE044A21EE055A21EE066A21EE077A9E
:1048400084ED041A84ED064A84ED075A84ED086A63
:1048500084ED097A84ED0A1A32EE020A21EE000A8A
:1048600021EE000A84ED0D2A84ED0E0A012084F861
:104870006200B0BD606E00218160022084F8620099
:10488000012084F8601084F85100B0BD83F92246FD
:10489000DB0FC940816D0131816570472DE9F04121
:1048A00000240E46074640F80C4B24219846154636
:1048B000BC6587F86040FBF713FDA7F85040C7E9D7
:1048C0000D44C7E90F44C7E91144FC64C7E91985E1
:1048D000FE66A7F85440BDE8F081000090ED041A90
:1048E00090ED0B0AB4EE410AF1EE10FA02DA90ED07
:1048F0000D1A20E090ED052A9FED391AB4EE420A18
:10490000F1EE10FA17DB90ED062AB4EE420AF1EE52
:1049100010FA05DA90ED0D1AB1EE411A0BE000BF66
:1049200090ED072AB4EE420AF1EE10FA3CDA816B00
:104930000022C0E90F2190F8601090ED0C2A0129A7
:1049400017D190ED0F3A21EE021A90ED104A31EE98
:10495000031A21EE023A90ED125A33EE043A80ED3A
:104960000F1A23EE021A31EE051A80ED103A80ED8F
:10497000121A90ED001A30EE020A32EE011AB4EE6D
:10498000410AF1EE10FA80ED0B0AD8BF704790F89B
:104990006210012904BF052180F862100021C16264
:1049A00080F86010704700BF90ED082AB4EE420A0C
:1049B000F1EE10FAAEDB90ED092AB4EE420AF1EE08
:1049C00010FAB8DB90ED002AB4EE420AF1EE10FACC
:1049D0008DDB81688164022180F86010ABE700BF45
:1049E00000000000B0B5044690F86000012804D132
:1049F0002046FFF773FF94F86000032813D194ED6D
:104A00000C0A94ED0F1A94ED102A21EE001A94ED81
:104A1000123A31EE021A21EE000A30EE030A84ED5A
:104A2000101A84ED120A94F85100012818BFB0BD85
:104A300094ED120A9FED0F1AA06E20EE010A406954
:104A4000BDEEC00A10EE105AFFF73CFD291AE06EC9
:104A500001F30F01FEF73AFBA16E0546084604215B
:104A6000FFF70CFEA06E29460022BDE8B040FFF71C
:104A700091BD00BF83F9224610B542F61044C4F23E
:104A800001042068000607D42068C00510D4BDE8E2
:104A90001040FEF75DBA00BF6FF08000206040F26A
:104AA000B010C2F20000FEF7C9FB2068C005EED5C9
:104AB0006FF4807044F8100940F2B010C2F20000A8
:104AC0002146FEF7C5FBBDE81040FEF741BA0000E5
:104AD00042F6104140F2B010C4F201016FF0010241
:104AE000C2F200000A60FFF73DBB000040F2200068
:104AF000C2F20000016AC868C0071ABF08695FEA0D
:104B0000C070704740F220006FF00102C2F2000056
:104B10000A61FBF7A1BD000042F6FF330268C4F250
:104B2000010398422EDCB0F1804F3DD040F20043AB
:104B3000C4F20003984237D040F60003C4F20003E9
:104B4000984231D043F2FF33C4F20103984235DD7D
:104B500044F2FF33C4F2010398424DDD44F20043B6
:104B6000C4F20103984253D045F20003C4F201039A
:104B700098424DD044F60003C4F20103984247D056
:104B80004AE000BF42F60043C4F2010398420BD052
:104B900045F20003C4F20103984205D043F20043FA
:104BA000C4F201039842CDD14B6822F070021A433F
:104BB00043F2FF33C4F201039842C9DC40F2FF73B1
:104BC000C4F20003984209DCB0F1804F20D040F2DB
:104BD0000043C4F2000398421AD01DE040F60003DF
:104BE000C4F20003984213D042F60043C4F201031A
:104BF00098420DD010E000BF43F20043C4F201031D
:104C0000984205D044F20003C4F20103984203D154
:104C1000CB6822F440721A4380B54B6922F0800EB3
:104C20008A6843EA0E03D1F800C00360C262A0F1B3
:104C30008042A2F596324FEAB222092AC0F828C073
:104C4000BDE8804008D8012303FA02F240F2E523D0
:104C50001A421CBF09690163012141610169C90749
:104C600008BF7047016921F0010101617047000030
:104C700040F21040C2F200008088B0FA80F0400993
:104C80007047000080B50020FBF75EFD40F2C400D5
:104C9000C2F2000080210022BDE88040FEF770B81B
:104CA00080B50020FBF782FD002080BD10B50446D2
:104CB00040F22060C2F2000050F82400FFF7D6F95D
:104CC0002046FBF741FD40F29830C2F2000050F858
:104CD0002400FFF751FC4FF4487000F0FFF940F258
:104CE000C400C2F200002C2114FB01000821417015
:104CF00010BD000070B582B00020ADF8060040F293
:104D00002000C2F200000DF10601FBF7E3FB40F2C8
:104D10008830C2F200000068FEF746FA40F2C40490
:104D2000C2F200042046FEF735F808B10A2009E077
:104D300040F2C404C2F200042046FEF733F828B162
:104D40001EE000BF607002B070BD00BF6078142824
:104D5000F9D8DFE810F01900170049001700170014
:104D600017002F001700ED00170015004500170071
:104D70001700170017007F00CD0017001700F7007D
:104D80000B20DFE7DFE700BF207800F0FD000128FF
:104D9000D9D140F22065C2F20005286890F87F1052
:104DA000002900F01D810121A0F86010FEF710FA23
:104DB000FCE000BF2078052800F0C78040F2943066
:104DC000C2F200000068FFF70DFE40F2C400C2F21C
:104DD0000000FDF783FF0020FBF792FC02B070BDDE
:104DE00020780228AFD1A8E02078052800F0AD8017
:104DF00040F2A800C2F20000857BFBF705FB002D06
:104E000008BF002800F0DC8040F22065C2F20005F7
:104E10002868FFF72BF940F29836C2F20006306896
:104E2000FFF7AAFB30680321FFF728FC306840F247
:104E30002001C2F20001FFF725FC0020FBF784FCF3
:104E400028680021FFF7D0F94FF4487000F046F9C8
:104E5000142077E72078052877D0FFF709FF00288E
:104E60003FF471AF40F22065C2F200052868FFF7F9
:104E7000FDF840F22C4140F29836C2F200010122C6
:104E8000C2F20006306881F8202040F25031C2F2B0
:104E90000001FFF7F7FB40F22000C2F20000FBF731
:104EA000CDFB0020FBF750FC40F2A800C2F200004E
:104EB000807B002800F09A8030680321FFF7DEFB3A
:104EC000306840F22001C2F20001FFF7DBFB002056
:104ED000FBF77CFD0020FBF713FC3068FFF7A8FB15
:104EE00040F2C400C2F20000FDF7F8FE062184E0A3
:104EF0002078052829D040F22065C2F200052868F4
:104F00000121FEF765F900283FF41DAF2078032842
:104F10004CD100200025FBF717FC40F29830C2F27C
:104F200000000068FFF728FB258002B070BD00BFBD
:104F300000F0DAF800283FF406AF0020208002B02D
:104F400070BD00BF2078052804D10020FFF7AEFE19
:104F500002B070BD00F0C8F800283FF4F4AE40F293
:104F60002000C2F20000FBF769FB40F22060C2F2B1
:104F700000000068FFF79EF840F29430C2F2000093
:104F80000068FFF7F1FB0020FBF720FD40F29830AE
:104F9000C2F200000068FFF74BFB2046FDF79EFEC3
:104FA0000020FBF7ADFB0620CCE600BF28680021FF
:104FB000FFF71AF9142000F08BF81020C2E600BFAA
:104FC00040F29830C2F200000068FFF7ABFA40F2FE
:104FD0002C41C2F2000100228A81C88102B070BD5A
:104FE0000021FEF7F5F81120ACE600BF40F2A80062
:104FF000C2F20000FBF728FA022128686170FEF770
:1050000013FA02B070BD000040F21040C2F200007E
:10501000007801280CBF0020704700F001B80000A4
:10502000F0B581B040F220670446C2F2000728B113
:105030003868FEF7E7F8014621E000BF40F218307B
:10504000C2F20000418940F22830C2F20000FEF7AF
:1050500003F8396805460846FEF7D4F840F24031B7
:10506000C2F200014989064640F20800C2F200007F
:10507000FFF7E6F9284300F00E0040EA060140F28F
:10508000C400C2F200002C2214FB02054FF6FF7090
:1050900081EA00022846FDF773FE2846FDF77CFEF4
:1050A000A0B140F21460C2F2000050F824000028C1
:1050B0001CBF0021C17357F82400FEF7B3F9204646
:1050C00001B0BDE8F040FBF73FBB00BF01B0F0BD51
:1050D00040F21041C2F200018880704740F2104156
:1050E000C2F20001C880704740F21040C2F20000D6
:1050F000C088B0FA80F0400970470000416A0A0792
:105100000CD4CA0715D18A071ED44A0727D4CA0669
:1051100030D48A0639D44A0642D457E00268D0F81F
:1051200034C0536823F4004343EA0C035360CA07B6
:10513000E9D00268D0F828C0536823F4003343EA6A
:105140000C0353608A07E0D50268D0F82CC053687E
:1051500023F4803343EA0C0353604A07D7D502682F
:10516000D0F830C0536823F4802343EA0C03536023
:10517000CA06CED50268D0F838C0936823F48053AD
:1051800043EA0C0393608A06C5D50268D0F83CC098
:10519000936823F4005343EA0C0393604A0615D541
:1051A000D0F800C0036CDCF80420B3F5801F22F4B3
:1051B000801242EA0302CCF8042007D1DCF8042074
:1051C000436C22F4C0021A43CCF80420090658BFED
:1051D00070470168806C4A6822F4002210434860DE
:1051E00070470000B0B582B004460020C4F88400C7
:1051F000FCF7E2FB216805460A68120737D56FF015
:105200007E4C20464FF4001100222B46CDF800C002
:1052100000F07EF950B300BF206850E8000F21680D
:1052200020F0800041E80002DAB1206850E8000F69
:10523000216820F0800041E8000292B1206850E827
:10524000000F216820F0800041E800024AB1206888
:1052500050E8000F216820F0800041E80002002A99
:10526000DAD1032020217C226AE000BF216808688F
:1052700040075DD56FF07E4C20464FF48001002240
:105280002B46CDF800C000F043F9002850D000BFF5
:10529000206850E8000F216820F4907041E8000277
:1052A000BAB3206850E8000F216820F4907041E8FC
:1052B000000272B3206850E8000F216820F490705B
:1052C00041E800022AB3206850E8000F216820F46A
:1052D000907041E80002002ADAD11AE0206850E814
:1052E000020F216820F0010041E80202DAB12068D3
:1052F00050E8020F216820F0010041E8020292B15B
:10530000206850E8020F216820F0010041E8020205
:105310004AB1206850E8020F216820F0010041E8FE
:105320000202002ADAD103202021802208E000BFF7
:105330002020E067C4F8800000216422002021665C
:10534000A150002184F8781002B0B0BDB0B5054678
:105350000168806805F10C041CCC184340EA040382
:10536000D5F81CC00C6846F6F310CEF6FF7020404E
:10537000184340EA0C000860486820F4405010438D
:105380004860A8692A6A8B68104323F4306210438E
:10539000886044F6FF30C4F2000081424FF01002F2
:1053A00018DD44F60040C4F20000814226D045F2E8
:1053B0000000C4F20000814228D043F60000C4F28D
:1053C0000100814238D141F23000C4F2020001688C
:1053D0004BA22DE044F20040C4F2000081421DD0F7
:1053E00044F60000C4F20000814225D141F23000B1
:1053F000C4F202000068810C16E000BF41F23000E8
:10540000C4F202000068010D0EE000BF41F230005E
:10541000C4F202000068810D06E000BF41F23000D6
:10542000C4F202000068010C46F22802C0F6000235
:1054300001F0030052F8202041F20020BCF5004F9B
:10544000C0F27A000ED1082A4FF0010153D8DFE8EC
:1054500002F005192B52215252522900FCF790FDFF
:1054600010BB44E0082A4FF0010144D8DFE802F005
:10547000060E324316434343300000BFFCF780FD65
:1054800040BB34E0FCF790FD70B930E0FCF78CFDD8
:1054900000BB2CE0FCF79CFD30B928E0FCF798FD40
:1054A000C0B924E04FF4004069684A0802EB4000AC
:1054B000B0FBF1F04FF6EF72A0F11001914219D854
:1054C0004FF6F0710140C0F3420008440DE000BF08
:1054D0004FF4004069684FF6EF7200EB5100B0FBEB
:1054E000F1F0A0F11001914204D82968C8600021B0
:1054F00001E000BF012100220846AA66EA66B0BDAD
:10550000010000000400000008000000020000008C
:105510002DE9F041804600681546C2690E461140EB
:10552000891BB1FA81F149098D4223D1069C2CB324
:10553000611C29D1C1693140891BB1FA81F1490946
:105540008D4217D1C1693140891BB1FA81F14909F6
:105550008D420FD1C1693140891BB1FA81F14909EE
:105560008D4207D1C1693140891BB1FA81F14909E6
:105570008D42DFD00020BDE8F08100BFFCF71CFAAF
:105580000320BDE8F08100BF1F4607E0C06930403E
:10559000801BB0FA80F040098542EBD1FCF70CFA91
:1055A000C01BA04200F2B080D8F800000168490793
:1055B000ECD5402EEAD0802EE8D0C169090700F171
:1055C000A780C1690905E1D54FF400610162D8F8EF
:1055D000000050E8000FD8F8001020F4907041E867
:1055E0000002002A43D0D8F8000050E8000FD8F895
:1055F000001020F4907041E80002C2B3D8F8000017
:1056000050E8000FD8F8001020F4907041E8000234
:105610006AB3D8F8000050E8000FD8F8001020F462
:10562000907041E80002002AD1D120E0D8F80000B3
:1056300050E8020FD8F8001020F0010041E8020203
:105640000AB3D8F8000050E8020FD8F8001020F094
:10565000010041E80202B2B1D8F8000050E8020FA0
:10566000D8F8001020F0010041E802025AB1D8F841
:10567000000050E8020FD8F8001020F0010041E8C7
:105680000202002AD2D1D8F8600001282CD1D8F823
:10569000000050E8000FD8F8001020F0100041E89A
:1056A00000020AB3D8F8000050E8000FD8F8001044
:1056B00020F0100041E80002B2B1D8F8000050E834
:1056C000000FD8F8001020F0100041E800025AB195
:1056D000D8F8000050E8000FD8F8001020F01000B3
:1056E00041E80002002AD2D120200021C8F8800021
:1056F000C8F86010C8F86810C8F88400032088F85B
:105700007810BDE8F08100BF0320BDE8F08100BF44
:1057100008210162D8F8000050E8000FD8F8001006
:1057200020F4907041E80002002A44D0D8F800002C
:1057300050E8000FD8F8001020F4907041E8000203
:10574000CAB3D8F8000050E8000FD8F8001020F4D1
:10575000907041E8000272B3D8F8000050E8000FE2
:10576000D8F8001020F4907041E80002002AD1D14E
:1057700021E000BFD8F8000050E8020FD8F8001070
:1057800020F0010041E802020AB3D8F8000050E816
:10579000020FD8F8001020F0010041E80202B2B177
:1057A000D8F8000050E8020FD8F8001020F00100EF
:1057B00041E802025AB1D8F8000050E8020FD8F8C8
:1057C000001020F0010041E80202002AD2D1D8F8EE
:1057D000600001282CD1D8F8000050E8000FD8F85C
:1057E000001020F0100041E800020AB3D8F80000D1
:1057F00050E8000FD8F8001020F0100041E8000237
:10580000B2B1D8F8000050E8000FD8F8001020F02E
:10581000100041E800025AB1D8F8000050E8000F2B
:10582000D8F8001020F0100041E80002002AD2D180
:105830002020C8F8800000200821C8F86000C8F8BF
:105840006800C8F8841088F878000120BDE8F0816D
:10585000C28E00214160C16041820170C0E908111F
:10586000018501638185C28570470000FFF7F0BFA5
:1058700090F82C30002B18BF70476AB3838E5A43C0
:1058800044F6D353C1F26203A2FB03239A09012316
:1058900013FA82F3C2891FFA83FC03859C4513B275
:1058A00016D110B5428BD0F81CE002EB820244788E
:1058B0000EFB01FE52009EFBF2FE93FBF4F2AEEBF8
:1058C0000202120492FBFCF262430262BDE8104045
:1058D0004185190441627047438BC26903EB83031E
:1058E0004A435B0092FBF3F2437881815A43C281C1
:1058F000002202854185704796B0FCF771F8FEF7EB
:10590000DDFE41F21400C4F202000168002441F4FB
:1059100080010160016801F4800101910199016831
:1059200041F400210160016801F400210191019915
:10593000016841F400310160016801F40031019116
:105940000199016841F4802101600068282100F478
:1059500080200190019801A81594CDE91344FAF72D
:10596000BFFC40F25440C2F2000002264FF0A041BA
:105970000123C6610426CDE91044CDE90E44CDE9EA
:105980000C444FF4803280F82040C0E90A342027CC
:1059900080F8304080E89600C0E904360483436311
:1059A000FBF714FD20B1EFF3108072B6FEE700BFE5
:1059B00040F25440C2F2000013A91394FBF7B0FA6E
:1059C00020B1EFF3108072B6FEE700BF0120042281
:1059D000CDE901000021039240228DF8220040F21F
:1059E000544004910224CDE90912ADF82010CDE90C
:1059F0000511C2F2000001A90794FAF7E9FF28B1E6
:105A0000EFF3108072B600BFFEE700BF0720CDE9BC
:105A1000010440F25440C2F2000001A9FAF7D8FF95
:105A200020B1EFF3108072B6FEE700BF01200D90A9
:105A300000200F900621CDE9100040F254400224CE
:105A40000E91C2F200000CA90C94FBF7F1FA28B1F8
:105A5000EFF3108072B600BFFEE700BF0820CDE96B
:105A60000C0440F25440C2F200000CA9FBF7E0FA2B
:105A700020B1EFF3108072B6FEE700BF40F2A44001
:105A800040F20011C2F20000C5F2000100244FF400
:105A900080320125202380E8160000F10C010894D3
:105AA00080F82040C56180F83040042668C1048336
:105AB0004563FBF78BFC28B1EFF3108072B600BF93
:105AC000FEE700BF0720CDE901054020CDE90940F0
:105AD00040F2A4400227C2F2000001A904940797F3
